:100000000C942A000C9447000C9447000C94470071
:100010000C9447000C9447000C9447000C94470044
:100020000C9447000C9447000C9447000C94470034
:100030000C9447000C9447000C9447000C94470024
:100040000C9447000C9447000C9447000C94470014
:100050000C94470011241FBECFE5D8E0DEBFCDBF12
:1000600010E0A0E6B0E0E6E4F9E002C005900D92F1
:10007000AE36B107D9F710E0AEE6B0E001C01D9290
:10008000AE36B107E1F70E94BE030C94A1040C94B4
:100090000000CF93C82F82E060E040E00E94310270
:1000A00082E061E040E00E94310281E06C2F0E941A
:1000B000D20282E062E041E00E9431028FE99FE0DB
:1000C0000197F1F700C0000082E062E040E00E948A
:1000D0003102CF91089581E06FEF0E94170282E014
:1000E00060E041E00E94760182E061E041E00E9430
:1000F000760182E062E041E00E9476018FE59AEEAF
:100100000197F1F700C0000088E30E9449008CE0ED
:100110000E94490081E00E9449000895CF93C82FB2
:1001200082E060E041E00E94310282E061E040E074
:100130000E94310281E06C2F0E94D20282E062E0D4
:1001400041E00E9431028FE99FE00197F1F700C082
:10015000000082E062E040E00E943102CF91089509
:100160000F931F93CF938C01FC018081882351F062
:10017000C0E00E948E00CF5FF801EC0FF11D80817E
:100180008823B9F7CF911F910F9108954F925F92F5
:100190006F927F928F929F92AF92BF92CF92DF9297
:1001A000EF92FF92CF93DF936B017C016115710594
:1001B0008105910521F480E30E948E004FC081E00B
:1001C00090E0A0E0B0E00F2EFAE08F2EF0E09F2E3E
:1001D000F0E0AF2EF0E0BF2EF02DBC01CD01A50167
:1001E00094010E9460042B013C01C701B6010E94EA
:1001F0007F04DC01CB01840D951DA61DB71DC22E09
:10020000D32EE42EF52EC114D104E104F10429F714
:1002100081309105A105B10509F10F2EFAE04F2EAD
:10022000F0E05F2EF0E06F2EF0E07F2EF02DBC01AD
:10023000CD01A30192010E947F04822EC32EC42F00
:10024000D52F862F805D0E948E00882D9C2DAC2F8F
:10025000BD2F81309105A105B10549F7DF91CF91FF
:10026000FF90EF90DF90CF90BF90AF909F908F90D6
:100270007F906F905F904F900895882329F0813090
:1002800029F4862F805C03C0862F01C080E080584F
:100290000E9449000895DF92EF92FF920F931F93FF
:1002A000CF93DF93082FF92E162FE42ED22E862F10
:1002B000880F880F880F805C0E944900C02FDF2DB7
:1002C00000E089910E948E000F5F0830D1F78E2DDB
:1002D0006D2D0E943D01812F0E948E00DF91CF91F4
:1002E0001F910F91FF90EF90DF900895683008F014
:1002F00096C0442309F04AC08230D9F0833020F4FC
:10030000813009F08EC006C0833011F1843009F0CD
:1003100088C02DC02AB381E090E0AC0102C0440F38
:10032000551F6A95E2F7BA01609562236ABB80E0C7
:10033000089527B381E090E0AC0102C0440F551F3F
:100340006A95E2F7BA016095622367BB80E0089581
:1003500024B381E090E0AC0102C0440F551F6A95C0
:10036000E2F7BA016095622364BB80E0089521B38F
:1003700081E090E0AC0102C0440F551F6A95E2F79E
:10038000BA016095622361BB80E00895413009F0B5
:100390004AC08230D1F0833020F4813009F045C06A
:1003A00006C0833001F1843009F03FC02AC02AB36F
:1003B00081E090E0AC0102C0440F551F6A95E2F75E
:1003C000BA01622B6ABB80E0089527B381E090E018
:1003D000AC0102C0440F551F6A95E2F7BA01622BC7
:1003E00067BB80E0089524B381E090E0AC0102C0D7
:1003F000440F551F6A95E2F7BA01622B64BB80E097
:10040000089521B381E090E0AC0102C0440F551F74
:100410006A95E2F7BA01622B61BB80E0089581E042
:10042000089581E0089581E0089581E00895823083
:1004300069F0833018F4813091F405C0833049F0BD
:10044000843069F409C06ABB80E0089567BB80E02E
:10045000089564BB80E0089561BB80E0089581E069
:100460000895683008F096C0442309F04AC08230ED
:10047000D9F0833020F4813009F08EC006C083307B
:1004800011F1843009F088C02DC02BB381E090E0D9
:10049000AC0102C0440F551F6A95E2F7BA0160959E
:1004A00062236BBB80E0089528B381E090E0AC014B
:1004B00002C0440F551F6A95E2F7BA0160956223A6
:1004C00068BB80E0089525B381E090E0AC0102C0F4
:1004D000440F551F6A95E2F7BA016095622365BB28
:1004E00080E0089522B381E090E0AC0102C0440FA7
:1004F000551F6A95E2F7BA016095622362BB80E0FE
:100500000895413009F04AC08230D1F0833020F4A0
:10051000813009F045C006C0833001F1843009F014
:100520003FC02AC02BB381E090E0AC0102C0440F71
:10053000551F6A95E2F7BA01622B6BBB80E0089504
:1005400028B381E090E0AC0102C0440F551F6A95CA
:10055000E2F7BA01622B68BB80E0089525B381E021
:1005600090E0AC0102C0440F551F6A95E2F7BA0152
:10057000622B65BB80E0089522B381E090E0AC017E
:1005800002C0440F551F6A95E2F7BA01622B62BBA5
:1005900080E0089581E0089581E0089581E0089564
:1005A00081E00895823069F0833018F4813091F44D
:1005B00005C0833049F0843069F409C06BBB80E02A
:1005C000089568BB80E0089565BB80E0089562BB34
:1005D00080E0089581E00895683008F046C08230D8
:1005E000D1F0833020F4813009F041C006C083305F
:1005F00001F1843009F03BC02AC02BB381E090E0C8
:10060000AC0102C0440F551F6A95E2F7BA01622798
:100610006BBB80E0089528B381E090E0AC0102C09C
:10062000440F551F6A95E2F7BA01622768BB80E064
:10063000089525B381E090E0AC0102C0440F551F3E
:100640006A95E2F7BA01622765BB80E0089522B39C
:1006500081E090E0AC0102C0440F551F6A95E2F7BB
:10066000BA01622762BB80E0089581E0089581E0CD
:100670000895823079F0833018F48130D1F405C0C8
:10068000833069F08430A9F40FC08BB380958BBBA5
:1006900080E0089588B3809588BB80E0089585B395
:1006A000809585BB80E0089582B3809582BB80E011
:1006B000089581E008954115510509F44DC0683051
:1006C00008F04CC08230D9F0833020F4813009F03A
:1006D00047C006C0833011F1843009F041C02DC0FD
:1006E00089B390E09C0102C0359527956A95E2F7A1
:1006F000B901617069BBFA01608380E0089586B337
:1007000090E09C0102C0359527956A95E2F7B90102
:10071000617066BBFA01608380E0089583B390E066
:100720009C0102C0359527956A95E2F7B901617081
:1007300063BBFA01608380E0089580B390E09C0180
:1007400002C0359527956A95E2F7B901617060BBE3
:10075000FA01608380E0089581E0089581E00895C2
:1007600081E0089541E00E947601089541E00E94F1
:100770003102089540E00E943102089584E060E073
:100780000E94B20384E061E00E94B20384E062E070
:100790000E94B2030E946B0080E060E00E943D0175
:1007A00080E690E00E94B00080E06DE00E943D0194
:1007B0008AE690E00E94B0000F2EF9E08F2EF0E064
:1007C0009F2EF0E0AF2EF0E0BF2EF02D0F2EF3E0C5
:1007D0004F2EF0E05F2EF0E06F2EF0E07F2EF02D38
:1007E00084E060E00E94B6037501640180E06AE085
:1007F0000E943D01C701B6010E94C6008FEF99E635
:10080000A8E181509040A040E1F700C000000894AA
:10081000C108D108E108F108C114D104E104F104D0
:1008200029F784E060E00E94BA0384E061E00E945E
:10083000B6037301620180E06AE00E943D01C701D6
:10084000B6010E94C6008FEF99E6A8E18150904062
:10085000A040E1F700C000000894C108D108E108F9
:10086000F108C114D104E104F10429F784E061E046
:100870000E94BA0384E062E00E94B603750164013D
:1008800080E06AE00E943D01C701B6010E94C600F7
:100890008FEF99E6A8E181509040A040E1F700C0B9
:1008A00000000894C108D108E108F108C114D1047E
:1008B000E104F10429F784E062E00E94BA0390CFDA
:1008C000629FD001739FF001829FE00DF11D649F34
:1008D000E00DF11D929FF00D839FF00D749FF00DC0
:1008E000659FF00D9927729FB00DE11DF91F639F61
:1008F000B00DE11DF91FBD01CF0111240895A1E242
:100900001A2EAA1BBB1BFD010DC0AA1FBB1FEE1F89
:10091000FF1FA217B307E407F50720F0A21BB30BD4
:10092000E40BF50B661F771F881F991F1A9469F750
:1009300060957095809590959B01AC01BD01CF01AC
:060940000895F894FFCFBA
:0E09460052454D41494E494E470073656300CE
:00000001FF
